:020000020000FC
:040000000EC097C0D7
:100010005DC07FC0C0F9A4B0999282D880900FE5EE
:100020000DBF02E00EBF0FEF0ABB07BB02BB00EF24
:1000300004BB0FE005BB02E005BF00E40BBF02EC10
:10004000402E07EF502E02E003BF03E00EBD5CBC64
:100050004DBC01E009BF78940024112402E0202E59
:1000600001E0302EF0E0E4E1CC27099111E0E00F4F
:1000700024913CE340E8989B05D0999B0BD09A9B38
:1000800011D0F9CF0394002D0A3009F40024989B75
:10009000FECF08951394012D063009F41124999B85
:1000A000FECF08952394022D033061F00A3039F415
:1000B00001E0302E222403C001E0202E33249A9B3D
:1000C000FECF0895032D0130B9F3F9CF5CBC4DBCD0
:1000D00000E840273A95C1F43CE30394002D0A3030
:1000E00099F400241394012D063071F41124239403
:1000F000022D033051F00A3039F401E0302E222471
:1001000003C001E0202E33241895032D0130C9F3DC
:10011000FBCF0FEF08BB110F103141F00991E4E163
:10012000E00F249124271BBB28BB1895CC2711E096
:0C013000F5CF0FEF05BB05E009BF1895E7
:00000001FF
