:020000020000FC
:0200000009C035
:100012003FC00FE50DBF02E00EBF0FEF0ABB04BBEE
:1000220008BB03E003BF01EC02BF01E009BF789403
:1000320006E0002E08E5102E00E4202E0FE3302EFD
:100042000FE3402E08E7502E0FE3602E06E0702EDD
:100052000BE5802E0FE4902E06E6A02E0DE6B02EC4
:100062000DE7C02E07E2D02E0FE7E02E0FE6F02EAE
:10007200FF27EE27A6E0C6E014E0B09B17C0B19BB5
:100082001AC0B29B1DC0B39B20C0B49B23C0F5CF46
:10009200FBBB109515BB109501EC02BF01910BBB88
:1000A200110F08F01895EE2714E0FCCF06E0002EA1
:1000B200B09915C0FDCF0BE5002EB19910C0FDCF50
:1000C2000FE4002EB2990BC0FDCF06E6002EB399C5
:1000D20006C0FDCF0DE6002EB49901C0FDCF293038
:1000E2002CF4A39523950C91302EC7CF20E0A6E0E7
:0C00F2000C91302EC3950881402EBFCF2A
:00000001FF
