:020000020000FC
:100000000FE50DBF02E00EBF0FEF0ABB08BBB09BB0
:100010000FD0B19B14D0B29B19D0B39B1ED0B49B10
:1000200023D0B59B28D0B69B2DD0B79B32D0EFCF35
:10003000D89A06E035D0D89805E832D00895D89AF5
:1000400008E02ED0D89804E82BD00895D89A09E07B
:1000500027D0D89803E824D00895D89A0AE020D071
:10006000D89802E81DD00895D89A0BE019D0D898F6
:1000700001E816D00895D89A0CE012D0D89800E87C
:100080000FD00895D89A0DE00BD0D8980FE708D07C
:100090000895D89A0EE004D0D8980EE701D00895BC
:1000A00003D00A95E9F708952DE22A95F1F70000AB
:0200B0000895B1
:00000001FF
